:100000003CC1000057C1000055C1000053C10000B1
:1000100051C100004FC100004DC100004BC10000A4
:1000200049C1000047C1000045C1000043C10000B4
:1000300041C1000096C100003DC100003BC100006D
:1000400039C1000037C1000035C1000033C10000D4
:1000500031C100002FC100002DC100002BC10000E4
:1000600029C1000027C1000025C1000023C10000F4
:1000700021C100001FC100001DC100001BC1000004
:1000800019C1000017C1000015C10000F9012402C8
:10009000510264027702860295020000000000000F
:1000A000005F00000007000700147F147F14242A5B
:1000B0007F2A122313086462364955225000050333
:1000C0000000001C2241000041221C0014083E08D0
:1000D0001408083E08080050300000080808080806
:1000E000006060000020100804023E5149453E00B7
:1000F000427F400042615149462141454B3118142D
:10010000127F1027454545393C4A4949300171095C
:1001100005033649494936064949291E0036360045
:100120000000563600000814224100141414141460
:1001300000412214080201510906324979413E7EEC
:100140001111117E7F494949363E414141227F418B
:1001500041221C7F494949417F090909013E414922
:10016000497A7F0808087F00417F41002040413FD5
:10017000017F081422417F404040407F020C027FF3
:100180007F0408107F3E4141413E7F090909063E38
:100190004151215E7F0919294646494949310101EA
:1001A0007F01013F4040403F1F2040201F3F40381B
:1001B000403F6314081463070870080761514945FC
:1001C00043007F41410002040810200041417F00AC
:1001D00004020102044040404040000102040020AB
:1001E000545454787F484444383844444420384474
:1001F00044487F3854545418087E0901020C525266
:10020000523E7F0804047800447D40002040443D75
:10021000007F1028440000417F40007C04180478CF
:100220007C0804047838444444387C1414140808C6
:100230001414187C7C080404084854545420043FC7
:100240004440203C4040207C1C2040201C3C40304E
:10025000403C44281028440C5050503C4464544CBA
:1002600044000836410000007F00000041360800CD
:100270001008081008000000000011241FBECFEF76
:10028000D0E4DEBFCDBF11E0A0E0B1E0E0E7FDE0EB
:1002900000E00BBF02C007900D92AA37B107D9F753
:1002A00023E0AAE7B1E001C01D92A639B207E1F749
:1002B000B3D45CC5A5CE2898662311F02A9A15C040
:1002C0002A9813C0AC01022E02C0559547950A9496
:1002D000E2F740FF02C02B9A01C02B982C9A2C9871
:1002E0002150310978F7289A089527E030E090E00E
:1002F000E9CF60E0E0CF0895609338017093390151
:1003000080933A0190933B0160938203709383033F
:10031000809384039093850308958BE080938100FC
:100320008DE790E0909389008093880082E080932D
:100330006F00109285001092840080913801909196
:100340003901A0913A01B0913B01809382039093CF
:100350008303A0938403B09385038FB780688FBF16
:1003600008951F920F920FB60F9211248F939F93AF
:10037000AF93BF938091820390918303A0918403F4
:10038000B09185030197A109B109809382039093ED
:100390008303A0938403B0938503892B8A2B8B2B33
:1003A00099F481E08093860380913801909139011E
:1003B000A0913A01B0913B01809382039093830313
:1003C000A0938403B0938503BF91AF919F918F91C8
:1003D0000F900FBE0F901F9018958830910548F42C
:1003E000FC013197E730F10508F0B6C0EA5BFF4F3A
:1003F00055C48FEF88B981E090E00090780302C087
:10040000880F991F0A94E2F78BB9E0917C01F0E024
:10041000EE0FFF1FEC5FFE4F809178030190F0819B
:10042000E02DE80FF11D808188B9809178038F5FFE
:10043000883029F08093780381E090E0089510924D
:10044000780381E090E008952FEF28B921E030E0B3
:100450000090780302C0220F331F0A94E2F72BB9F1
:10046000E091780320919503E2130AC0F0E0E6588A
:10047000FC4F308120910501232B209528B906C01F
:10048000F0E0E658FC4F2081209528B920917803B0
:100490002F5F283019F02093780308951092780385
:1004A000089520919003273009F456C02F5F2093C0
:1004B000900340E850E0BA0102C0759567952A950F
:1004C000E2F760930501089520919003222309F437
:1004D00043C021502093900340E850E0BA0102C08D
:1004E000759567952A95E2F7609305010895209127
:1004F0009503222389F121502093950331E001C017
:10050000330F2A95EAF7309304010895209195035B
:10051000273011F12F5F2093950331E001C0330F95
:100520002A95EAF730930401089540919503E42F4A
:10053000F0E0E658FC4F308120910501232B208309
:1005400021E030E002C0220F331F4A95E2F73091DC
:100550007903232B209379030895EAE7F0E0808163
:10056000806E80830895ACE7B0E090E49C93EAE766
:10057000F0E09081946890839C918770982B9C9375
:10058000808180648083808184FFFDCFEAE7F0E092
:1005900080818061808380917800909179000895B6
:1005A0000F931F93CF938C01C3B181E0DCDF909355
:1005B0008B0380938A0380E0D6DF90938F03809330
:1005C0008E03012B09F041C020918A0330918B03E7
:1005D00080910201909103012817390718F484E0F3
:1005E00090E0FBDE20918A0330918B038091000123
:1005F000909101018217930718F483E090E0EDDEFB
:1006000020918E0330918F0380910201909103011C
:100610002817390718F485E090E0DFDE20918E037B
:1006200030918F038091000190910101821793070F
:1006300018F486E090E0D1DE8C2F90E080959095C4
:1006400085FF03C087E090E0C8DECF911F910F9136
:100650000895CF93DF93209A219A229A239A249A7D
:10066000299A289A83EC99E00197F1F700C00000DD
:1006700029988BE594E40197F1F700C00000299ACE
:10068000289881E236DE83E134DE86E032DE82ECD9
:1006900030DE80E22EDE89E02CDE80E82ADE80E497
:1006A00028DEC8EFD1E061E080E005DE2197D9F7D0
:1006B00088E01FDE8CE01DDEDF91CF91089580E899
:1006C00018DE80E416DE1092760310927703EEE7D0
:1006D000F1E086E793E01192E817F907E1F7089552
:1006E000262F26952695269590E034E5239F800DAC
:1006F000911D1124442379F0FC01E258FE4F6770EC
:1007000081E090E002C0880F991F6A95E2F790811E
:10071000892B80830895FC01E258FE4F677081E0C9
:1007200090E002C0880F991F6A95E2F7809590814A
:100730008923808308955F926F927F928F929F9218
:10074000AF92BF92CF92DF92EF92FF920F931F93DF
:10075000CF93DF93562E262F30E04901880C991C49
:10076000880C991C820E931E181419040CF059C0A1
:100770008901000F111F000F111F000F111F021B15
:10078000130B612CA82EB12CC50180975C01AA0C1B
:10079000BB1CAA0CBB1CA80EB91E0F2EF7E7CF2E50
:1007A000F3E0DF2EF02D0F2EF6E7EF2EF3E0FF2E15
:1007B000F02D2AC0FE01249130E0872D652D46D210
:1007C00002C0359527958A95E2F720FF09C0F6010A
:1007D0006081670DF701808141E0860D81DF08C0EF
:1007E000F6016081670DF701808140E0860D78DFBA
:1007F0007394872D90E080179107E4F26394862D1F
:1008000090E0881599056CF410161106BCF7862D3A
:10081000652D1CD2E501C80FD11DC656DF4F712CC6
:10082000C9CF8091760391E0980F852D880F880FAE
:10083000850D890F843518F4809376030EC01092CD
:100840007603E7E7F3E0808191E0980F852D880F2C
:10085000880F880F8519890F8083809177038033F3
:1008600020F01092760310927703DF91CF911F91C1
:100870000F91FF90EF90DF90CF90BF90AF909F903F
:100880008F907F906F905F9008951F93CF93DF9329
:10089000EC018881882339F0162F2196612F4BDFD8
:1008A00089918111FBCFDF91CF911F9108950F9313
:1008B0001F93CF93DF9380E81CDD80E41ADDCEE741
:1008C000D1E006E713E061E08991F5DCC017D107BC
:1008D000D1F7DF91CF911F910F910895EF92FF9281
:1008E0000F931F93CF93DF93E82EF62E06E713E0C6
:1008F000F8011082C7E7D3E0188261E08CE391E051
:10090000C4DF61E080E38E0D16DFD1DFF8011082D5
:1009100082E1888361E084E491E0B7DF61E080E315
:100920008F0D09DFC4DFDF91CF911F910F91FF90F1
:10093000EF9008954F925F926F927F929F92AF9245
:10094000BF92CF92DF92EF92FF920F931F93CF93BC
:10095000DF93CDB7DEB72A970FB6F894DEBF0FBE90
:10096000CDBF83B190E08095909580729927909348
:100970008D0380938C03209187032230E1F030F4C3
:10098000222339F1213009F446C02EC1233009F465
:10099000F7C0243009F028C180919103909192030F
:1009A000A0919303B091940380339547A105B105BD
:1009B0000CF469C0D9C08091910390919203A091E9
:1009C0009303B0919403803A9648A140B105A4F1F5
:1009D0004EC03FDE80E28DDC0F2EF6E7EF2EF3E017
:1009E000FF2EF02DF701108207E713E0F8011082C7
:1009F00062E08CE491E049DF5ADFF701108282E186
:100A0000F801808361E083E591E03FDF50DF81E022
:100A100080938703EBC0892B09F4E8C050DE8091F6
:100A20007C018F5F80937C0192E0909387036091BB
:100A30007B0190E053DFDAC081E090E0CEDC809172
:100A4000910390919203A0919303B0919403019626
:100A5000A11DB11D8093910390939203A0939303E2
:100A6000B0939403803A9648A140B1052CF31092BC
:100A7000910310929203109293031092940384E0D6
:100A800080938703B3C00F2EF4E64F2E512C612CB8
:100A9000712CF02D0F2EF8EECF2EF3E0DF2EE12C8F
:100AA000F12CF02D0F2EF6E7AF2EF3E0BF2EF02D38
:100AB00007E713E00F2EFAE09F2EF02D82E090E082
:100AC0008CDC6091910370919203809193039091DB
:100AD0009403A3019201C6D0672B682B692B19F4EC
:100AE00080E090E05DDD60919103709192038091D0
:100AF000930390919403A7019601B4D0672B682BC0
:100B0000692BC9F44AE050E0BE016F5F7F4F8EE170
:100B100090E0EFD0F5011082F801108261E08DE6DF
:100B200091E0B3DEF5011082F801908261E0CE0120
:100B30000196ABDEBCDE8091910390919203A0916F
:100B40009303B09194030196A11DB11D809391036D
:100B500090939203A0939303B093940380339547AB
:100B6000A105B1050CF4AACF109291031092920343
:100B7000109293031092940383E08093870336C00E
:100B800010927D01AAE7B3E0E0917C01F0E0EE0F66
:100B9000FF1FEC5FFE4F0190F081E02D80E02D9172
:100BA0009191291305C090917A019F5F90937A01EA
:100BB0008F5F80937D01883091F780917A01883032
:100BC00029F480917B018C5E80937B0110927603E7
:100BD00082E18093770361E083E591E056DE67DE92
:100BE00081E08093870302C0109287032A960FB694
:100BF000F894DEBF0FBECDBFDF91CF911F910F9153
:100C0000FF90EF90DF90CF90BF90AF909F907F903C
:100C10006F905F904F90089511B88FEF82B99FE168
:100C200094B990EE95B987B918B88AB91BB895DC14
:100C30006AE070E080E090E05FDB6FDB7BDE80915C
:100C400086038823E1F310928603F8CF991B79E09D
:100C500004C0991F961708F0961B881F7A95C9F74C
:100C600080950895052E97FB16F400940FD057FD3C
:100C700005D01DD007FC02D046F408C05095409521
:100C8000309521953F4F4F4F5F4F08959095809538
:100C9000709561957F4F8F4F9F4F0895EE0FFF1F07
:100CA0000024001C0BBE0790F691E02D0994A1E2F0
:100CB0001A2EAA1BBB1BFD010DC0AA1FBB1FEE1FD6
:100CC000FF1FA217B307E407F50720F0A21BB30B21
:100CD000E40BF50B661F771F881F991F1A9469F79D
:100CE00060957095809590959B01AC01BD01CF01F9
:100CF00008954532510518F4423008F004C0FB0154
:100D00001082CB010895BB274A3031F4992322F495
:100D1000BDE2909581959F4F01C0BB27FB015527F0
:100D2000AA27880F991FAA1FA41710F0A41B839548
:100D30005051B9F7A05DAA3308F0A95DA1930097BF
:100D400079F7B111B1931192CB0100C0DC01FC0124
:100D5000672F71917723E1F7329704C07C916D93EF
:100D600070836291AE17BF07C8F30895F894FFCF60
:100D70004402FE0101803001280120011801100108
:100D8000FFFF9F6D086D6FFF55AA55AA55AA55AA7A
:100D9000C3BD5A7E5A66BDC3E7DBBD7E7EBDDBE7C1
:100DA000FFE7E7FFE7F7EFFF010000004C6576651E
:100DB0006C3A200053636F72653A20004D454D4FE9
:100DC000525900507265737320627574746F6E208F
:100DD000746F20636F6E74696E75652E00436F7556
:0A0DE0006E74646F776E3A20000015
:00000001FF
