:1000000035C1000050C100004EC100004CC10000CD
:100010004AC1000048C1000046C1000044C10000C0
:1000200042C1000040C100003EC100003CC10000D0
:100030003AC100008FC1000036C1000034C1000089
:1000400032C1000030C100002EC100002CC10000F0
:100050002AC1000028C1000026C1000024C1000000
:1000600022C1000020C100001EC100001CC1000010
:100070001AC1000018C1000016C1000014C1000020
:1000800012C1000010C100000EC1000000000000FD
:100090000000005F00000007000700147F147F14B9
:1000A000242A7F2A122313086462364955225000FD
:1000B00005030000001C2241000041221C0014081E
:1000C0003E081408083E08080050300000080808E0
:1000D0000808006060000020100804023E514945F5
:1000E0003E00427F400042615149462141454B312B
:1000F0001814127F1027454545393C4A49493001BB
:10010000710905033649494936064949291E003611
:100110003600000056360000081422410014141462
:100120001414004122140802015109063249794190
:100130003E7E1111117E7F494949363E414141229F
:100140007F4141221C7F494949417F090909013EFC
:100150004149497A7F0808087F00417F41002040DB
:10016000413F017F081422417F404040407F020C04
:10017000027F7F0408107F3E4141413E7F0909090B
:10018000063E4151215E7F091929464649494931B8
:1001900001017F01013F4040403F1F2040201F3FA1
:1001A0004038403F63140814630708700807615122
:1001B000494543007F4141000204081020004141AD
:1001C0007F0004020102044040404040000102045C
:1001D0000020545454787F484444383844444420E0
:1001E000384444487F3854545418087E0901020C9E
:1001F0005252523E7F0804047800447D4000204063
:10020000443D007F1028440000417F40007C0418DA
:1002100004787C0804047838444444387C1414146A
:1002200008081414187C7C0804040848545454200A
:10023000043F4440203C4040207C1C2040201C3C8B
:100240004030403C44281028440C5050503C4464FA
:10025000544C44000836410000007F000000413645
:1002600008001008081008000000000011241FBE3C
:10027000CFEFD0E4DEBFCDBF11E0A0E0B1E0EAE512
:10028000F8E000E00BBF02C007900D92A234B10766
:10029000D9F723E0A2E4B1E001C01D92A834B2076F
:1002A000E1F781D2D8C2ACCE2898662311F02A9A01
:1002B00015C02A9813C0AC01022E02C0559547956F
:1002C0000A94E2F740FF02C02B9A01C02B982C9AA7
:1002D0002C982150310978F7289A089527E030E0CA
:1002E00090E0E9CF60E0E0CF089560930A01709359
:1002F0000B0180930C0190930D0160933E0370936A
:100300003F03809340039093410308958BE08093D3
:1003100081008DE790E0909389008093880082E0CF
:1003200080936F00109285001092840080910A01E2
:1003300090910B01A0910C01B0910D0180933E03AF
:1003400090933F03A0934003B09341038FB780681D
:100350008FBF08951F920F920FB60F9211248F93A3
:100360009F93AF93BF9380913E0390913F03A091E1
:100370004003B09141030197A109B10980933E0365
:1003800090933F03A0934003B0934103892B8A2BA2
:100390008B2B99F481E08093420380910A01909124
:1003A0000B01A0910C01B0910D0180933E0390933D
:1003B0003F03A0934003B0934103BF91AF919F913E
:1003C0008F910F900FBE0F901F901895CF93DF93D2
:1003D000209A219A229A239A249A299A289A83EC7D
:1003E00099E00197F1F700C0000029988BE594E4AB
:1003F0000197F1F700C00000299A289881E272DF86
:1004000083E170DF86E06EDF82EC6CDF80E26ADF22
:1004100089E068DF80E866DF80E464DFC8EFD1E070
:1004200061E080E041DF2197D9F788E05BDF8CE075
:1004300059DFDF91CF910895262F26952695269591
:1004400090E034E5239F800D911D1124442379F021
:10045000FC01EC5BFE4F677081E090E002C0880F0A
:10046000991F6A95E2F79081892B80830895FC019A
:10047000EC5BFE4F677081E090E002C0880F991F2F
:100480006A95E2F7809590818923808308955F9231
:100490006F927F928F929F92AF92BF92CF92DF9294
:1004A000EF92FF920F931F93CF93DF93562E262F39
:1004B00030E04901880C991C880C991C820E931E0F
:1004C000181419040CF059C08901000F111F000FF6
:1004D000111F000F111F021B130B612CA82EB12C32
:1004E000C50180975C01AA0CBB1CAA0CBB1CA80E02
:1004F000B91E0F2EFDE3CF2EF3E0DF2EF02D0F2ED1
:10050000FCE3EF2EF3E0FF2EF02D2AC0FE01249134
:1005100030E0872D652D93D102C0359527958A95BA
:10052000E2F720FF09C0F6016081670DF7018081C5
:1005300041E0860D81DF08C0F6016081670DF7019B
:10054000808140E0860D78DF7394872D90E08017DE
:100550009107E4F26394862D90E0881599056CF478
:1005600010161106BCF7862D652D69D1E501C80F5F
:10057000D11DC457DF4F712CC9CF80913C0391E04E
:10058000980F852D880F880F850D890F843518F4F5
:1005900080933C030EC010923C03EDE3F3E08081B6
:1005A00091E0980F852D880F880F880F8519890F86
:1005B000808380913D03803320F010923C031092A1
:1005C0003D03DF91CF911F910F91FF90EF90DF904E
:1005D000CF90BF90AF909F908F907F906F905F90E3
:1005E00008951F93CF93DF93EC018881882339F01E
:1005F000162F2196612F4BDF89918111FBCFDF915F
:10060000CF911F9108950F931F93CF93DF9380E8AD
:1006100069DE80E467DEC4E4D1E00CE313E061E06E
:10062000899142DEC017D107D1F7DF91CF911F9199
:100630000F9108958730910508F068C083309105C7
:1006400089F13CF48130910571F082309105A9F077
:1006500008958530910509F44AC0CCF186309105A2
:1006600009F07DC053C02FEF28B92BB920910101AB
:1006700028B9209100012BB9089520914603273015
:1006800009F46DC02F5F2093460340E850E0BA01A3
:1006900002C0759567952A95E2F79B0120952093F6
:1006A0000101089520914603222309F458C02150E6
:1006B0002093460340E850E0BA0102C07595679563
:1006C0002A95E2F79B01209520930101089520913E
:1006D0004703273009F443C02F5F2093470331E0DD
:1006E00001C0330F2A95EAF7309300010895209155
:1006F00047032223A1F121502093470331E001C099
:10070000330F2A95EAF73093000108958FEF88B9E7
:1007100081E090E00090420102C0880F991F0A9486
:10072000E2F78BB9E0914201F0914301EE5FFE4F99
:10073000808188B98091420190914301019688306F
:10074000910539F0909343018093420186E090E057
:100750000895109243011092420186E090E00895BE
:10076000EAE7F0E08081806E80830895ACE7B0E036
:1007700090E49C93EAE7F0E09081946890839C91E8
:100780008770982B9C93808180648083808184FF14
:10079000FDCFEAE7F0E0808180618083809178007E
:1007A00090917900089511B88FEF82B99FE194B9C3
:1007B00090EE95B987B918B88AB91BB883B190E0A3
:1007C0008095909585FF0CC001DE80E28BDD109254
:1007D0003C0310923D0361E08EE291E002DF13DF03
:1007E000BFDF64E670E080E090E07FDD8FDD81E0D8
:1007F000BDDF8C0180E0BADFEC0181E090E01ADF20
:100800000A3F110518F483E090E014DF053313402C
:1008100018F082E090E00EDFCA3FD10518F485E0C1
:1008200090E008DFC533D34018F084E090E002DFA9
:10083000809142038823E1F310924203D8CF991BA1
:1008400079E004C0991F961708F0961B881F7A95C7
:0A085000C9F780950895F894FFCFD2
:10085A00017FFFFF9F6D086D6FFF010000004D458E
:10086A004D4F525900446F20796F752077616E742D
:10087A0020746F20636F6E74696E75653F004275F0
:10088A0074746F6E20697320707265737365642166
:02089A0000005C
:00000001FF
