:100000003CC1000057C1000055C1000053C10000B1
:1000100051C100004FC100004DC100004BC10000A4
:1000200049C1000047C1000045C1000043C10000B4
:1000300041C1000096C100003DC100003BC100006D
:1000400039C1000037C1000035C1000033C10000D4
:1000500031C100002FC100002DC100002BC10000E4
:1000600029C1000027C1000025C1000023C10000F4
:1000700021C100001FC100001DC100001BC1000004
:1000800019C1000017C1000015C100009C03C60380
:10009000FF031204250434044304000000000000A0
:1000A000005F00000007000700147F147F14242A5B
:1000B0007F2A122313086462364955225000050333
:1000C0000000001C2241000041221C0014083E08D0
:1000D0001408083E08080050300000080808080806
:1000E000006060000020100804023E5149453E00B7
:1000F000427F400042615149462141454B3118142D
:10010000127F1027454545393C4A4949300171095C
:1001100005033649494936064949291E0036360045
:100120000000563600000814224100141414141460
:1001300000412214080201510906324979413E7EEC
:100140001111117E7F494949363E414141227F418B
:1001500041221C7F494949417F090909013E414922
:10016000497A7F0808087F00417F41002040413FD5
:10017000017F081422417F404040407F020C027FF3
:100180007F0408107F3E4141413E7F090909063E38
:100190004151215E7F0919294646494949310101EA
:1001A0007F01013F4040403F1F2040201F3F40381B
:1001B000403F6314081463070870080761514945FC
:1001C00043007F41410002040810200041417F00AC
:1001D00004020102044040404040000102040020AB
:1001E000545454787F484444383844444420384474
:1001F00044487F3854545418087E0901020C525266
:10020000523E7F0804047800447D40002040443D75
:10021000007F1028440000417F40007C04180478CF
:100220007C0804047838444444387C1414140808C6
:100230001414187C7C080404084854545420043FC7
:100240004440203C4040207C1C2040201C3C40304E
:10025000403C44281028440C5050503C4464544CBA
:1002600044000836410000007F00000041360800CD
:100270001008081008000000000011241FBECFEF76
:10028000D0E4DEBFCDBF11E0A0E0B1E0E8E2FAE0EB
:1002900000E00BBF02C007900D92A434B107D9F75C
:1002A00023E0A4E4B1E001C01D92A935B207E1F753
:1002B0007ED3B8C3A5CE2898662311F02A9A15C01C
:1002C0002A9813C0AC01022E02C0559547950A9496
:1002D000E2F740FF02C02B9A01C02B982C9A2C9871
:1002E0002150310978F7289A089527E030E090E00E
:1002F000E9CF60E0E0CF089560930E0170930F01A5
:10030000809310019093110160934B0370934C0301
:1003100080934D0390934E0308958BE0809381006A
:100320008DE790E0909389008093880082E080932D
:100330006F00109285001092840080910E019091C0
:100340000F01A0911001B091110180934B03909384
:100350004C03A0934D03B0934E038FB780688FBFBB
:1003600008951F920F920FB60F9211248F939F93AF
:10037000AF93BF9380914B0390914C03A0914D0399
:10038000B0914E030197A109B10980934B0390935B
:100390004C03A0934D03B0934E03892B8A2B8B2BD8
:1003A00099F481E080934F0380910E0190910F01A9
:1003B000A0911001B091110180934B0390934C03D5
:1003C000A0934D03B0934E03BF91AF919F918F9136
:1003D0000F900FBE0F901F901895CF93DF93209A28
:1003E000219A229A239A249A299A289A83EC99E0AE
:1003F0000197F1F700C0000029988BE594E401977C
:10040000F1F700C00000299A289881E272DF83E1A9
:1004100070DF86E06EDF82EC6CDF80E26ADF89E00D
:1004200068DF80E866DF80E464DFC8EFD1E061E088
:1004300080E041DF2197D9F788E05BDF8CE059DF6E
:10044000DF91CF91089580E854DF80E452DF10926D
:10045000490310924A03E1E5F1E089E493E0119247
:10046000E817F907E1F70895262F26952695269592
:1004700090E034E5239F800D911D1124442379F0F1
:10048000FC01EF5AFE4F677081E090E002C0880FD8
:10049000991F6A95E2F79081892B80830895FC016A
:1004A000EF5AFE4F677081E090E002C0880F991FFD
:1004B0006A95E2F7809590818923808308955F9201
:1004C0006F927F928F929F92AF92BF92CF92DF9264
:1004D000EF92FF920F931F93CF93DF93562E262F09
:1004E00030E04901880C991C880C991C820E931EDF
:1004F000181419040CF059C08901000F111F000FC6
:10050000111F000F111F021B130B612CA82EB12C01
:10051000C50180975C01AA0CBB1CAA0CBB1CA80ED1
:10052000B91E0F2EFAE4CF2EF3E0DF2EF02D0F2EA2
:10053000F9E4EF2EF3E0FF2EF02D2AC0FE01249106
:1005400030E0872D652D59D202C0359527958A95C3
:10055000E2F720FF09C0F6016081670DF701808195
:1005600041E0860D81DF08C0F6016081670DF7016B
:10057000808140E0860D78DF7394872D90E08017AE
:100580009107E4F26394862D90E0881599056CF448
:1005900010161106BCF7862D652D2FD2E501C80F68
:1005A000D11DC656DF4F712CC9CF8091490391E010
:1005B000980F852D880F880F850D890F843518F4C5
:1005C000809349030EC010924903EAE4F3E080816E
:1005D00091E0980F852D880F880F880F8519890F56
:1005E000808380914A03803320F010924903109257
:1005F0004A03DF91CF911F910F91FF90EF90DF9011
:10060000CF90BF90AF909F908F907F906F905F90B2
:1006100008951F93CF93DF93EC018881882339F0ED
:10062000162F2196612F4BDF89918111FBCFDF912E
:10063000CF911F9108950F931F93CF93DF9380E87D
:1006400058DE80E456DEC1E5D1E009E413E061E064
:10065000899131DEC017D107D1F7DF91CF911F917A
:100660000F9108950F931F93CF93DF9383B190E081
:1006700080959095807299279093540380935303AB
:1006800020915003213019F130F0223039F123301C
:1006900009F441C03EC0A1DE80E22BDE09E413E094
:1006A000F8011082CAE4D3E0188262E082E191E0AE
:1006B000B0DFC1DFF801108282E1888361E089E167
:1006C00091E0A7DFB8DF81E08093500324C0892B3D
:1006D00011F1B9DE82E0809350031DC080914F017B
:1006E0009091500101969093500180934F01109288
:1006F000490310924A0361E083E391E08ADF9BDFC4
:1007000061E08BE391E085DF96DF83E08093500327
:1007100002C010925003DF91CF911F910F91089565
:100720008830910548F4FC013197E730F10508F075
:10073000C1C0EA5BFF4F6DC18FEF88B981E090E0E7
:100740000090440102C0880F991F0A94E2F78BB908
:10075000E0914401F0914501EA5FFE4F808188B944
:10076000809144019091450101968830910539F0BE
:10077000909345018093440181E090E008951092A8
:1007800045011092440181E090E008952FEF28B9CF
:1007900021E030E00090440102C0220F331F0A9490
:1007A000E2F72BB92091580330E040914401509179
:1007B00045012417350751F4F901E95BFE4F3081FB
:1007C00020910501232B209528B906C0FA01E95B89
:1007D000FE4F2081209528B9209144013091450198
:1007E0002F5F3F4F2830310529F03093450120938A
:1007F00044010895109245011092440108952091FA
:100800005703273009F456C02F5F2093570340E861
:1008100050E0BA0102C0759567952A95E2F760939A
:100820000501089520915703222309F443C0215064
:100830002093570340E850E0BA0102C075956795D0
:100840002A95E2F760930501089520915803222329
:1008500089F121502093580331E001C0330F2A95CC
:10086000EAF730930401089520915803273011F1DD
:100870002F5F2093580331E001C0330F2A95EAF728
:1008800030930401089540915803E42FF0E0E95BB0
:10089000FE4F308120910501232B208321E030E0A1
:1008A00002C0220F331F4A95E2F730914601232BF5
:1008B000209346010895EAE7F0E08081806E80830E
:1008C0000895ACE7B0E090E49C93EAE7F0E0908113
:1008D000946890839C918770982B9C93808180640E
:1008E0008083808184FFFDCFEAE7F0E08081806132
:1008F0008083809178009091790008950F931F93E1
:10090000CF938C01C3B181E0DCDF909352038093DD
:10091000510380E0D6DF9093560380935503012B5B
:1009200009F041C02091510330915203809102019E
:10093000909103012817390718F484E090E0F0DE65
:100940002091510330915203809100019091010157
:100950008217930718F483E090E0E2DE20915503BC
:1009600030915603809102019091030128173907B5
:1009700018F485E090E0D4DE2091550330915603C1
:1009800080910001909101018217930718F486E08D
:1009900090E0C6DE8C2F90E08095909585FF03C097
:1009A00087E090E0BDDECF911F910F91089511B8BF
:1009B0008FEF82B99FE194B990EE95B987B918B8D5
:1009C0008AB91BB878DF6AE070E080E090E094DCE0
:1009D000A4DC80E090E046DE80914F03811107C0E7
:1009E00082E090E09DDE80914F038823C9F380E090
:1009F00090E084DF10924F03ECCF991B79E004C0A4
:100A0000991F961708F0961B881F7A95C9F780954D
:100A10000895EE0FFF1F0024001C0BBE0790F691F7
:080A2000E02D0994F894FFCFCA
:100A28004402FE010180FFFF9F6D086D6FFF01000A
:100A380000004D454D4F5259005072657373206246
:100A48007574746F6E20746F20636F6E74696E7541
:100A5800652E004C6576656C3A200053636F7265AD
:040A68003A20000030
:00000001FF
