:100000004CC0000067C0000065C0000063C0000075
:1000100061C000005FC000005DC000005BC0000068
:1000200059C0000057C0000055C0000053C0000078
:1000300051C0000085C000004DC000004BC0000052
:1000400049C0000047C0000045C0000043C0000098
:1000500041C000003FC000003DC000003BC00000A8
:1000600039C0000037C0000035C0000033C00000B8
:1000700031C000002FC000002DC000002BC00000C8
:1000800029C0000027C0000025C00000E8001201C0
:100090004B015E01710180018F0111241FBECFEF62
:1000A000D0E4DEBFCDBF11E0A0E0B1E0ECE9F4E0C8
:1000B00000E00BBF02C007900D92A231B107D9F743
:1000C00021E0A2E1B1E001C01D92AB32B207E1F73D
:1000D000BAD1E2C195CF60930E0170930F01809366
:1000E00010019093110160931D0170931E01809384
:1000F0001F019093200108958BE0809381008DE78C
:1001000090E0909389008093880082E080936F0054
:10011000109285001092840080910E0190910F0141
:10012000A0911001B091110180931D0190931E01C7
:10013000A0931F01B09320018FB780688FBF0895EF
:100140001F920F920FB60F9211248F939F93AF932C
:10015000BF9380911D0190911E01A0911F01B0914C
:1001600020010197A109B10980931D0190931E01FF
:10017000A0931F01B0932001892B8A2B8B2B99F41C
:1001800081E08093210180910E0190910F01A09157
:100190001001B091110180931D0190931E01A09355
:1001A0001F01B0932001BF91AF919F918F910F904C
:1001B0000FBE0F901F9018958830910548F4FC01F0
:1001C0003197E730F10508F0C1C0EA5BFF4F5BC132
:1001D0008FEF88B981E090E00090120102C0880F93
:1001E000991F0A94E2F78BB9E0911201F091130183
:1001F000EA5FFE4F808188B98091120190911301CE
:1002000001968830910539F0909313018093120183
:1002100081E090E00895109213011092120181E0A4
:1002200090E008952FEF28B921E030E0009012010E
:1002300002C0220F331F0A94E2F72BB920912A0142
:1002400030E040911201509113012417350751F409
:10025000F901EB5EFE4F308120910501232B2095A3
:1002600028B906C0FA01EB5EFE4F2081209528B91F
:1002700020911201309113012F5F3F4F283031053B
:1002800029F0309313012093120108951092130165
:1002900010921201089520912901273009F456C0C7
:1002A0002F5F2093290140E850E0BA0102C0759504
:1002B00067952A95E2F76093050108952091290139
:1002C000222309F443C021502093290140E850E043
:1002D000BA0102C0759567952A95E2F7609305010A
:1002E000089520912A01222389F1215020932A0187
:1002F00031E001C0330F2A95EAF7309304010895E5
:1003000020912A01273011F12F5F20932A0131E03B
:1003100001C0330F2A95EAF7309304010895409104
:100320002A01E42FF0E0EB5EFE4F308120910501C1
:10033000232B208321E030E002C0220F331F4A9597
:10034000E2F730911401232B209314010895EAE77A
:10035000F0E08081806E80830895ACE7B0E090E4A7
:100360009C93EAE7F0E09081946890839C91877079
:10037000982B9C93808180648083808184FFFDCF53
:10038000EAE7F0E08081806180838091780090913D
:10039000790008950F931F93CF938C01C3B181E02F
:1003A000DCDF909324018093230180E0D6DF9093DB
:1003B000280180932701012B09F041C020912301DE
:1003C000309124018091020190910301281739078F
:1003D00018F484E090E0F0DE2091230130912401B4
:1003E00080910001909101018217930718F483E036
:1003F00090E0E2DE209127013091280180910201F6
:10040000909103012817390718F485E090E0D4DEB5
:1004100020912701309128018091000190910101E4
:100420008217930718F486E090E0C6DE8C2F90E0E8
:100430008095909585FF03C087E090E0BDDECF9169
:100440001F910F91089511B88FEF82B99FE194B970
:1004500090EE95B987B918B88AB91BB878DF6AE009
:1004600070E080E090E037DE47DE03C082E090E09D
:10047000A3DE809121018823C9F380E090E08ADF28
:1004800010922101F6CFEE0FFF1F0024001C0BBEBF
:0C0490000790F691E02D0994F894FFCF3E
:10049C004402FE010180FFFF9F6D086D6FFF01009C
:0204AC0000004E
:00000001FF
